{
  "contractName": "Auction",
  "abi": [
    {
      "constant": true,
      "inputs": [],
      "name": "beneficiary",
      "outputs": [
        {
          "name": "",
          "type": "address"
        }
      ],
      "payable": false,
      "stateMutability": "view",
      "type": "function"
    },
    {
      "constant": true,
      "inputs": [],
      "name": "highestBidder",
      "outputs": [
        {
          "name": "",
          "type": "address"
        }
      ],
      "payable": false,
      "stateMutability": "view",
      "type": "function"
    },
    {
      "constant": true,
      "inputs": [],
      "name": "highestBid",
      "outputs": [
        {
          "name": "",
          "type": "uint256"
        }
      ],
      "payable": false,
      "stateMutability": "view",
      "type": "function"
    },
    {
      "inputs": [],
      "payable": false,
      "stateMutability": "nonpayable",
      "type": "constructor"
    },
    {
      "constant": false,
      "inputs": [],
      "name": "bid",
      "outputs": [],
      "payable": true,
      "stateMutability": "payable",
      "type": "function"
    },
    {
      "constant": false,
      "inputs": [],
      "name": "withdraw",
      "outputs": [
        {
          "name": "",
          "type": "bool"
        }
      ],
      "payable": false,
      "stateMutability": "nonpayable",
      "type": "function"
    },
    {
      "constant": false,
      "inputs": [],
      "name": "auctionEnd",
      "outputs": [],
      "payable": false,
      "stateMutability": "nonpayable",
      "type": "function"
    }
  ],
  "bytecode": "0x608060405234801561001057600080fd5b50336000806101000a81548173ffffffffffffffffffffffffffffffffffffffff021916908373ffffffffffffffffffffffffffffffffffffffff1602179055506000600381905550600180819055506106a48061006f6000396000f3fe608060405260043610610078576000357c0100000000000000000000000000000000000000000000000000000000900463ffffffff1680631998aeef1461007d5780632a24f46c1461008757806338af3eed1461009e5780633ccfd60b146100f557806391f9015714610124578063d57bde791461017b575b600080fd5b6100856101a6565b005b34801561009357600080fd5b5061009c610350565b005b3480156100aa57600080fd5b506100b361052c565b604051808273ffffffffffffffffffffffffffffffffffffffff1673ffffffffffffffffffffffffffffffffffffffff16815260200191505060405180910390f35b34801561010157600080fd5b5061010a610551565b604051808215151515815260200191505060405180910390f35b34801561013057600080fd5b5061013961064c565b604051808273ffffffffffffffffffffffffffffffffffffffff1673ffffffffffffffffffffffffffffffffffffffff16815260200191505060405180910390f35b34801561018757600080fd5b50610190610672565b6040518082815260200191505060405180910390f35b600060035414156101fe5733600260006101000a81548173ffffffffffffffffffffffffffffffffffffffff021916908373ffffffffffffffffffffffffffffffffffffffff1602179055503460038190555061034e565b6003543411151561029d576040517f08c379a00000000000000000000000000000000000000000000000000000000081526004018080602001828103825260268152602001807f54686520626964206973206e6f7420686967686572207468617420686967686581526020017f737420626964000000000000000000000000000000000000000000000000000081525060400191505060405180910390fd5b60035460046000600260009054906101000a900473ffffffffffffffffffffffffffffffffffffffff1673ffffffffffffffffffffffffffffffffffffffff1673ffffffffffffffffffffffffffffffffffffffff1681526020019081526020016000208190555033600260006101000a81548173ffffffffffffffffffffffffffffffffffffffff021916908373ffffffffffffffffffffffffffffffffffffffff160217905550346003819055505b565b600180541415156103ef576040517f08c379a000000000000000000000000000000000000000000000000000000000815260040180806020018281038252603a8152602001807f41756374696f6e20616c726561647920656e646564202c2061756374696f6e4581526020017f6e642063616e2062652063616c6c6564206f6e6c79206f6e636500000000000081525060400191505060405180910390fd5b60006001819055506000809054906101000a900473ffffffffffffffffffffffffffffffffffffffff1673ffffffffffffffffffffffffffffffffffffffff163373ffffffffffffffffffffffffffffffffffffffff161415156104e1576040517f08c379a000000000000000000000000000000000000000000000000000000000815260040180806020018281038252602e8152602001807f4f6e6c79207468652062656e65666963696172792063616e207472696767657281526020017f20746869732066756e6374696f6e00000000000000000000000000000000000081525060400191505060405180910390fd5b3373ffffffffffffffffffffffffffffffffffffffff166108fc6003549081150290604051600060405180830381858888f19350505050158015610529573d6000803e3d6000fd5b50565b6000809054906101000a900473ffffffffffffffffffffffffffffffffffffffff1681565b600080600460003373ffffffffffffffffffffffffffffffffffffffff1673ffffffffffffffffffffffffffffffffffffffff16815260200190815260200160002054905060003373ffffffffffffffffffffffffffffffffffffffff166108fc839081150290604051600060405180830381858888f193505050509050801515610644576040517f08c379a000000000000000000000000000000000000000000000000000000000815260040180806020018281038252601d8152602001807f4572726f7220696e2072657475726e696e672074686520616d6f756e7400000081525060200191505060405180910390fd5b809250505090565b600260009054906101000a900473ffffffffffffffffffffffffffffffffffffffff1681565b6003548156fea165627a7a72305820fd59b85e554bd9a9e436d026a50ad936ba590e084bdec0074db30aa0e4e158190029",
  "source": "pragma solidity ^0.5.0;\n\ncontract Auction {\n    address  public beneficiary;\n    uint cnt;\n    // Current state of the auction. You can create more variables if needed\n \n    address public highestBidder;\n    uint public highestBid;\n    \n\n    // Allowed withdrawals of previous bids\n    mapping(address => uint) pendingReturns;\n\n    // Constructor\n    constructor() public {\n        beneficiary = msg.sender;   \n        highestBid=0;    \n        cnt=1;\n    }\n\n    /// Bid on the auction with the value sent\n    /// together with this transaction.\n    /// The value will only be refunded if the\n    /// auction is not won.\n\n    function bid() public payable {\n\n\n        // TODO If the bid is not higher than highestBid, send the\n        // money back. Use \"require\"\n        if(highestBid==0)\n            {\n                        highestBidder=msg.sender;\n                        highestBid=msg.value;\n            }\n            else{\n\n                require (msg.value > highestBid,\"The bid is not higher that highest bid\");        \n                // TODO update state\n                pendingReturns[highestBidder] = highestBid;\n\n                highestBidder= msg.sender;\n                highestBid=msg.value;\n            }\n\n        // TODO store the previously highest bid in pendingReturns. That bidder\n        // will need to trigger withdraw() to get the money back.\n        // For example, A bids 5 ETH. Then, B bids 6 ETH and becomes the highest bidder. \n        // Store A and 5 ETH in pendingReturns. \n        // A will need to trigger withdraw() later to get that 5 ETH back.\n\n        // Sending back the money by simply using\n        // highestBidder.send(highestBid) is a security risk\n        // because it could execute an untrusted contract.\n        // It is always safer to let the recipients\n        // withdraw their money themselves.\n        //truffle withdrawal error required\n    }\n\n    /// Withdraw a bid that was overbid.\n    function withdraw() public returns (bool) {\n            uint val = pendingReturns[msg.sender];\n            bool status= msg.sender.send(val);\n            require(status,\"Error in returning the amount\");\n            return status;     \n        // TODO send back the amount in pendingReturns to the sender. Try to avoid the reentrancy attack. Return false if there is an error when sending\n    }\n\n    /// End the auction and send the highest bid\n    /// to the beneficiary.\n    function auctionEnd() public {\n        // TODO make sure that only the beneficiary can trigger this function. Use \"require\"\n        require(cnt==1, \"Auction already ended , auctionEnd can be called only once\");\n        cnt=0;\n        require(msg.sender == beneficiary, \"Only the beneficiary can trigger this function\");\n\n        msg.sender.transfer(highestBid);\n        // TODO send money to the beneficiary account. Make sure that it can't call this auctionEnd() multiple times to drain money\n    }\n}",
  "sourcePath": "C:\\Users\\Owner\\Desktop\\Courses\\Blockchain\\Projects\\FinalProject\\contracts\\Auction.sol",
  "compiler": {
    "name": "solc",
    "version": "0.5.0+commit.1d4f565a.Emscripten.clang"
  },
  "schemaVersion": "3.4.4",
  "updatedAt": "2022-04-25T07:22:30.431Z",
  "networkType": "ethereum",
  "devdoc": {
    "methods": {}
  },
  "userdoc": {
    "methods": {
      "auctionEnd()": {
        "notice": "End the auction and send the highest bid to the beneficiary."
      },
      "bid()": {
        "notice": "Bid on the auction with the value sent together with this transaction. The value will only be refunded if the auction is not won."
      },
      "withdraw()": {
        "notice": "Withdraw a bid that was overbid."
      }
    }
  }
}