{
  "contractName": "UserCrud",
  "abi": [
    {
      "constant": true,
      "inputs": [],
      "name": "userAddress",
      "outputs": [
        {
          "name": "",
          "type": "address"
        }
      ],
      "payable": false,
      "stateMutability": "view",
      "type": "function"
    },
    {
      "inputs": [],
      "payable": false,
      "stateMutability": "nonpayable",
      "type": "constructor"
    },
    {
      "anonymous": false,
      "inputs": [
        {
          "indexed": true,
          "name": "userAddress",
          "type": "address"
        },
        {
          "indexed": false,
          "name": "index",
          "type": "uint256"
        },
        {
          "indexed": false,
          "name": "userEmail",
          "type": "string"
        },
        {
          "indexed": false,
          "name": "ruserEmail",
          "type": "string"
        },
        {
          "indexed": false,
          "name": "price",
          "type": "uint256"
        },
        {
          "indexed": false,
          "name": "qtty",
          "type": "uint256"
        },
        {
          "indexed": false,
          "name": "fromAddr",
          "type": "string"
        },
        {
          "indexed": false,
          "name": "toAddr",
          "type": "string"
        },
        {
          "indexed": false,
          "name": "time",
          "type": "uint256"
        }
      ],
      "name": "LogNewUser",
      "type": "event"
    },
    {
      "constant": true,
      "inputs": [],
      "name": "isUser",
      "outputs": [
        {
          "name": "isIndeed",
          "type": "bool"
        }
      ],
      "payable": false,
      "stateMutability": "view",
      "type": "function"
    },
    {
      "constant": false,
      "inputs": [
        {
          "name": "userEmail",
          "type": "string"
        },
        {
          "name": "ruserEmail",
          "type": "string"
        },
        {
          "name": "price",
          "type": "uint256"
        },
        {
          "name": "qtty",
          "type": "uint256"
        },
        {
          "name": "fromAddr",
          "type": "string"
        },
        {
          "name": "toAddr",
          "type": "string"
        },
        {
          "name": "time",
          "type": "uint256"
        }
      ],
      "name": "insertUser",
      "outputs": [
        {
          "name": "index",
          "type": "uint256"
        }
      ],
      "payable": false,
      "stateMutability": "nonpayable",
      "type": "function"
    },
    {
      "constant": true,
      "inputs": [],
      "name": "getUserCount",
      "outputs": [
        {
          "name": "count",
          "type": "uint256"
        }
      ],
      "payable": false,
      "stateMutability": "view",
      "type": "function"
    },
    {
      "constant": true,
      "inputs": [
        {
          "name": "index",
          "type": "uint256"
        }
      ],
      "name": "getUserAtIndex",
      "outputs": [
        {
          "name": "userAddresses",
          "type": "address"
        }
      ],
      "payable": false,
      "stateMutability": "view",
      "type": "function"
    }
  ],
  "bytecode": "0x608060405234801561001057600080fd5b50336000806101000a81548173ffffffffffffffffffffffffffffffffffffffff021916908373ffffffffffffffffffffffffffffffffffffffff160217905550610d6b806100606000396000f3fe60806040526004361061006d576000357c0100000000000000000000000000000000000000000000000000000000900463ffffffff1680634c22c11914610072578063b5cb15f7146100a1578063c6b2ab9e146100cc578063e4128fb31461038b578063ffcc7bbf146103e2575b600080fd5b34801561007e57600080fd5b5061008761045d565b604051808215151515815260200191505060405180910390f35b3480156100ad57600080fd5b506100b6610567565b6040518082815260200191505060405180910390f35b3480156100d857600080fd5b50610375600480360360e08110156100ef57600080fd5b810190808035906020019064010000000081111561010c57600080fd5b82018360208201111561011e57600080fd5b8035906020019184600183028401116401000000008311171561014057600080fd5b91908080601f016020809104026020016040519081016040528093929190818152602001838380828437600081840152601f19601f820116905080830192505050505050509192919290803590602001906401000000008111156101a357600080fd5b8201836020820111156101b557600080fd5b803590602001918460018302840111640100000000831117156101d757600080fd5b91908080601f016020809104026020016040519081016040528093929190818152602001838380828437600081840152601f19601f82011690508083019250505050505050919291929080359060200190929190803590602001909291908035906020019064010000000081111561024e57600080fd5b82018360208201111561026057600080fd5b8035906020019184600183028401116401000000008311171561028257600080fd5b91908080601f016020809104026020016040519081016040528093929190818152602001838380828437600081840152601f19601f820116905080830192505050505050509192919290803590602001906401000000008111156102e557600080fd5b8201836020820111156102f757600080fd5b8035906020019184600183028401116401000000008311171561031957600080fd5b91908080601f016020809104026020016040519081016040528093929190818152602001838380828437600081840152601f19601f82011690508083019250505050505050919291929080359060200190929190505050610574565b6040518082815260200191505060405180910390f35b34801561039757600080fd5b506103a0610c32565b604051808273ffffffffffffffffffffffffffffffffffffffff1673ffffffffffffffffffffffffffffffffffffffff16815260200191505060405180910390f35b3480156103ee57600080fd5b5061041b6004803603602081101561040557600080fd5b8101908080359060200190929190505050610c57565b604051808273ffffffffffffffffffffffffffffffffffffffff1673ffffffffffffffffffffffffffffffffffffffff16815260200191505060405180910390f35b60008060028054905014156104755760009050610564565b6000809054906101000a900473ffffffffffffffffffffffffffffffffffffffff1673ffffffffffffffffffffffffffffffffffffffff166002600160008060009054906101000a900473ffffffffffffffffffffffffffffffffffffffff1673ffffffffffffffffffffffffffffffffffffffff1673ffffffffffffffffffffffffffffffffffffffff1681526020019081526020016000206007015481548110151561051f57fe5b9060005260206000200160009054906101000a900473ffffffffffffffffffffffffffffffffffffffff1673ffffffffffffffffffffffffffffffffffffffff161490505b90565b6000600280549050905090565b600087600160008060009054906101000a900473ffffffffffffffffffffffffffffffffffffffff1673ffffffffffffffffffffffffffffffffffffffff1673ffffffffffffffffffffffffffffffffffffffff16815260200190815260200160002060000190805190602001906105ed929190610c9a565b5086600160008060009054906101000a900473ffffffffffffffffffffffffffffffffffffffff1673ffffffffffffffffffffffffffffffffffffffff1673ffffffffffffffffffffffffffffffffffffffff1681526020019081526020016000206001019080519060200190610665929190610c9a565b5085600160008060009054906101000a900473ffffffffffffffffffffffffffffffffffffffff1673ffffffffffffffffffffffffffffffffffffffff1673ffffffffffffffffffffffffffffffffffffffff1681526020019081526020016000206002018190555084600160008060009054906101000a900473ffffffffffffffffffffffffffffffffffffffff1673ffffffffffffffffffffffffffffffffffffffff1673ffffffffffffffffffffffffffffffffffffffff1681526020019081526020016000206003018190555083600160008060009054906101000a900473ffffffffffffffffffffffffffffffffffffffff1673ffffffffffffffffffffffffffffffffffffffff1673ffffffffffffffffffffffffffffffffffffffff16815260200190815260200160002060040190805190602001906107ad929190610c9a565b5082600160008060009054906101000a900473ffffffffffffffffffffffffffffffffffffffff1673ffffffffffffffffffffffffffffffffffffffff1673ffffffffffffffffffffffffffffffffffffffff1681526020019081526020016000206005019080519060200190610825929190610c9a565b5081600160008060009054906101000a900473ffffffffffffffffffffffffffffffffffffffff1673ffffffffffffffffffffffffffffffffffffffff1673ffffffffffffffffffffffffffffffffffffffff16815260200190815260200160002060060181905550600160026000809054906101000a900473ffffffffffffffffffffffffffffffffffffffff1690806001815401808255809150509060018203906000526020600020016000909192909190916101000a81548173ffffffffffffffffffffffffffffffffffffffff021916908373ffffffffffffffffffffffffffffffffffffffff16021790555003600160008060009054906101000a900473ffffffffffffffffffffffffffffffffffffffff1673ffffffffffffffffffffffffffffffffffffffff1673ffffffffffffffffffffffffffffffffffffffff168152602001908152602001600020600701819055506000809054906101000a900473ffffffffffffffffffffffffffffffffffffffff1673ffffffffffffffffffffffffffffffffffffffff167fef6f06bd9de1baeb404a890f9a9f7427a429354a5343cd58326d24579cabcd13600160008060009054906101000a900473ffffffffffffffffffffffffffffffffffffffff1673ffffffffffffffffffffffffffffffffffffffff1673ffffffffffffffffffffffffffffffffffffffff168152602001908152602001600020600701548a8a8a8a8a8a8a604051808981526020018060200180602001888152602001878152602001806020018060200186815260200185810385528c818151815260200191508051906020019080838360005b83811015610aa6578082015181840152602081019050610a8b565b50505050905090810190601f168015610ad35780820380516001836020036101000a031916815260200191505b5085810384528b818151815260200191508051906020019080838360005b83811015610b0c578082015181840152602081019050610af1565b50505050905090810190601f168015610b395780820380516001836020036101000a031916815260200191505b50858103835288818151815260200191508051906020019080838360005b83811015610b72578082015181840152602081019050610b57565b50505050905090810190601f168015610b9f5780820380516001836020036101000a031916815260200191505b50858103825287818151815260200191508051906020019080838360005b83811015610bd8578082015181840152602081019050610bbd565b50505050905090810190601f168015610c055780820380516001836020036101000a031916815260200191505b509c5050505050505050505050505060405180910390a26001600280549050039050979650505050505050565b6000809054906101000a900473ffffffffffffffffffffffffffffffffffffffff1681565b6000600282815481101515610c6857fe5b9060005260206000200160009054906101000a900473ffffffffffffffffffffffffffffffffffffffff169050919050565b828054600181600116156101000203166002900490600052602060002090601f016020900481019282601f10610cdb57805160ff1916838001178555610d09565b82800160010185558215610d09579182015b82811115610d08578251825591602001919060010190610ced565b5b509050610d169190610d1a565b5090565b610d3c91905b80821115610d38576000816000905550600101610d20565b5090565b9056fea165627a7a723058202f91aec1dc198b86a4958dbc330dbb7deeeebf428f2a709f7bad42cb739c1bca0029",
  "source": "pragma solidity ^0.5.0;\r\n\r\ncontract UserCrud {\r\n\r\n   struct  UserStruct {\r\n    string userEmail;\r\n    string ruserEmail;\r\n    uint price;\r\n    uint qtty;\r\n    string fromAddr;\r\n    string toAddr;\r\n    uint time ;\r\n    uint index;\r\n\r\n  }\r\n  \r\n  address public userAddress;\r\n  mapping(address => UserStruct) private userStructs;\r\n\r\n  address[] private userIndex;\r\n\r\n\r\n event LogNewUser   (address indexed userAddress,\r\n  uint index, \r\n  string userEmail,\r\n    string ruserEmail,\r\n    uint price,\r\n    uint qtty,\r\n    string fromAddr,\r\n    string toAddr,\r\n    uint time );\r\n\r\n     constructor() public{\r\n        userAddress= msg.sender;\r\n    }\r\n\r\n\r\n\r\n\r\n\r\n  function isUser()\r\n    public \r\n    view\r\n    returns(bool isIndeed) \r\n  {\r\n    if(userIndex.length == 0) return false;\r\n    return (userIndex[userStructs[userAddress].index] == userAddress);\r\n  }\r\n\r\n\r\n\r\nfunction insertUser(\r\n    string memory userEmail,\r\n    string memory ruserEmail,\r\n    uint price,\r\n    uint qtty,\r\n    string memory fromAddr,\r\n    string  memory toAddr,\r\n    uint time ) \r\n    public\r\n    returns(uint index)\r\n  {\r\n   \r\n   userStructs[userAddress].userEmail = userEmail;\r\n    userStructs[userAddress].ruserEmail = ruserEmail;\r\n    userStructs[userAddress].price   = price;\r\n    userStructs[userAddress].qtty   = qtty;\r\n    userStructs[userAddress].fromAddr  = fromAddr;\r\n    userStructs[userAddress].toAddr  = toAddr;\r\n    userStructs[userAddress].time  = time;\r\n    userStructs[userAddress].index     = userIndex.push(userAddress)-1;\r\n    emit LogNewUser(\r\n        userAddress, \r\n        userStructs[userAddress].index,     \r\n  userEmail,\r\n   ruserEmail,\r\n   price,\r\n    qtty,\r\n    fromAddr,\r\n    toAddr,\r\n     time );\r\n\r\n        \r\n    return userIndex.length-1;\r\n  }\r\n  \r\n \r\n\r\n  function getUserCount() \r\n    public\r\n    view\r\n    returns(uint count)\r\n  {\r\n    return userIndex.length;\r\n  }\r\n\r\n  function getUserAtIndex(uint index)\r\n    public\r\n    view\r\n    returns(address userAddresses)\r\n  {\r\n    return userIndex[index];\r\n  }\r\n}\r\n",
  "sourcePath": "C:\\Users\\Owner\\Desktop\\Courses\\Blockchain\\Projects\\FinalProject\\contracts\\UserCrud.sol",
  "compiler": {
    "name": "solc",
    "version": "0.5.0+commit.1d4f565a.Emscripten.clang"
  },
  "schemaVersion": "3.4.4",
  "updatedAt": "2022-04-25T07:22:31.625Z",
  "networkType": "ethereum",
  "devdoc": {
    "methods": {}
  },
  "userdoc": {
    "methods": {}
  }
}